{
  "_format": "hh-sol-artifact-1",
  "contractName": "Staking",
  "sourceName": "contracts/Staking.sol",
  "abi": [
    {
      "inputs": [
        {
          "internalType": "uint256",
          "name": "currentEthPrice",
          "type": "uint256"
        },
        {
          "internalType": "address",
          "name": "_tokenAdress",
          "type": "address"
        },
        {
          "internalType": "uint256",
          "name": "_apy",
          "type": "uint256"
        }
      ],
      "stateMutability": "payable",
      "type": "constructor"
    },
    {
      "inputs": [
        {
          "internalType": "address",
          "name": "",
          "type": "address"
        }
      ],
      "name": "addressToPosition",
      "outputs": [
        {
          "internalType": "address",
          "name": "walletAddress",
          "type": "address"
        },
        {
          "internalType": "uint256",
          "name": "createDate",
          "type": "uint256"
        },
        {
          "internalType": "uint256",
          "name": "positionId",
          "type": "uint256"
        },
        {
          "internalType": "uint256",
          "name": "tokenQuantity",
          "type": "uint256"
        },
        {
          "internalType": "uint256",
          "name": "usdValue",
          "type": "uint256"
        },
        {
          "internalType": "uint256",
          "name": "ethValue",
          "type": "uint256"
        },
        {
          "internalType": "bool",
          "name": "open",
          "type": "bool"
        }
      ],
      "stateMutability": "view",
      "type": "function"
    },
    {
      "inputs": [],
      "name": "apy",
      "outputs": [
        {
          "internalType": "uint256",
          "name": "",
          "type": "uint256"
        }
      ],
      "stateMutability": "view",
      "type": "function"
    },
    {
      "inputs": [
        {
          "internalType": "uint256",
          "name": "value",
          "type": "uint256"
        },
        {
          "internalType": "uint256",
          "name": "_numberDays",
          "type": "uint256"
        }
      ],
      "name": "calculateInterest",
      "outputs": [
        {
          "internalType": "uint256",
          "name": "",
          "type": "uint256"
        }
      ],
      "stateMutability": "view",
      "type": "function"
    },
    {
      "inputs": [
        {
          "internalType": "uint256",
          "name": "_createDate",
          "type": "uint256"
        }
      ],
      "name": "calculateNumberDays",
      "outputs": [
        {
          "internalType": "uint256",
          "name": "",
          "type": "uint256"
        }
      ],
      "stateMutability": "view",
      "type": "function"
    },
    {
      "inputs": [],
      "name": "closePosition",
      "outputs": [],
      "stateMutability": "nonpayable",
      "type": "function"
    },
    {
      "inputs": [],
      "name": "currentPositionId",
      "outputs": [
        {
          "internalType": "uint256",
          "name": "",
          "type": "uint256"
        }
      ],
      "stateMutability": "view",
      "type": "function"
    },
    {
      "inputs": [],
      "name": "ethUsdPrice",
      "outputs": [
        {
          "internalType": "uint256",
          "name": "",
          "type": "uint256"
        }
      ],
      "stateMutability": "view",
      "type": "function"
    },
    {
      "inputs": [
        {
          "internalType": "uint256",
          "name": "_id",
          "type": "uint256"
        }
      ],
      "name": "getAddressByPositionId",
      "outputs": [
        {
          "internalType": "address",
          "name": "",
          "type": "address"
        }
      ],
      "stateMutability": "view",
      "type": "function"
    },
    {
      "inputs": [],
      "name": "getPositionIdByAddress",
      "outputs": [
        {
          "internalType": "uint256",
          "name": "",
          "type": "uint256"
        }
      ],
      "stateMutability": "view",
      "type": "function"
    },
    {
      "inputs": [
        {
          "internalType": "uint256",
          "name": "positionId",
          "type": "uint256"
        },
        {
          "internalType": "uint256",
          "name": "newCreateDate",
          "type": "uint256"
        }
      ],
      "name": "modifyCreateDate",
      "outputs": [],
      "stateMutability": "nonpayable",
      "type": "function"
    },
    {
      "inputs": [],
      "name": "owner",
      "outputs": [
        {
          "internalType": "address",
          "name": "",
          "type": "address"
        }
      ],
      "stateMutability": "view",
      "type": "function"
    },
    {
      "inputs": [
        {
          "internalType": "uint256",
          "name": "",
          "type": "uint256"
        }
      ],
      "name": "positionDB",
      "outputs": [
        {
          "internalType": "address",
          "name": "walletAddress",
          "type": "address"
        },
        {
          "internalType": "uint256",
          "name": "createDate",
          "type": "uint256"
        },
        {
          "internalType": "uint256",
          "name": "positionId",
          "type": "uint256"
        },
        {
          "internalType": "uint256",
          "name": "tokenQuantity",
          "type": "uint256"
        },
        {
          "internalType": "uint256",
          "name": "usdValue",
          "type": "uint256"
        },
        {
          "internalType": "uint256",
          "name": "ethValue",
          "type": "uint256"
        },
        {
          "internalType": "bool",
          "name": "open",
          "type": "bool"
        }
      ],
      "stateMutability": "view",
      "type": "function"
    },
    {
      "inputs": [
        {
          "internalType": "uint256",
          "name": "",
          "type": "uint256"
        }
      ],
      "name": "positionIdToAddress",
      "outputs": [
        {
          "internalType": "address",
          "name": "",
          "type": "address"
        }
      ],
      "stateMutability": "view",
      "type": "function"
    },
    {
      "inputs": [
        {
          "internalType": "uint256",
          "name": "_id",
          "type": "uint256"
        }
      ],
      "name": "queryRewards",
      "outputs": [
        {
          "internalType": "uint256",
          "name": "",
          "type": "uint256"
        }
      ],
      "stateMutability": "view",
      "type": "function"
    },
    {
      "inputs": [
        {
          "internalType": "uint256",
          "name": "_id",
          "type": "uint256"
        }
      ],
      "name": "queryStakedTokens",
      "outputs": [
        {
          "internalType": "uint256",
          "name": "",
          "type": "uint256"
        }
      ],
      "stateMutability": "view",
      "type": "function"
    },
    {
      "inputs": [],
      "name": "returnPositions",
      "outputs": [
        {
          "components": [
            {
              "internalType": "address",
              "name": "walletAddress",
              "type": "address"
            },
            {
              "internalType": "uint256",
              "name": "createDate",
              "type": "uint256"
            },
            {
              "internalType": "uint256",
              "name": "positionId",
              "type": "uint256"
            },
            {
              "internalType": "uint256",
              "name": "tokenQuantity",
              "type": "uint256"
            },
            {
              "internalType": "uint256",
              "name": "usdValue",
              "type": "uint256"
            },
            {
              "internalType": "uint256",
              "name": "ethValue",
              "type": "uint256"
            },
            {
              "internalType": "bool",
              "name": "open",
              "type": "bool"
            }
          ],
          "internalType": "struct Staking.Position[]",
          "name": "",
          "type": "tuple[]"
        }
      ],
      "stateMutability": "nonpayable",
      "type": "function"
    },
    {
      "inputs": [
        {
          "internalType": "uint256",
          "name": "tokenQuantity",
          "type": "uint256"
        }
      ],
      "name": "stakeTokens",
      "outputs": [],
      "stateMutability": "nonpayable",
      "type": "function"
    },
    {
      "inputs": [],
      "name": "tokenAddress",
      "outputs": [
        {
          "internalType": "address",
          "name": "",
          "type": "address"
        }
      ],
      "stateMutability": "view",
      "type": "function"
    },
    {
      "inputs": [],
      "name": "usdPrice",
      "outputs": [
        {
          "internalType": "uint256",
          "name": "",
          "type": "uint256"
        }
      ],
      "stateMutability": "view",
      "type": "function"
    }
  ],
  "bytecode": "0x608060405260405162001cb438038062001cb4833981810160405281019062000029919062000176565b826001819055508060058190555081600460006101000a81548173ffffffffffffffffffffffffffffffffffffffff021916908373ffffffffffffffffffffffffffffffffffffffff16021790555060006006819055506001600381905550336000806101000a81548173ffffffffffffffffffffffffffffffffffffffff021916908373ffffffffffffffffffffffffffffffffffffffff160217905550505050620001d2565b600080fd5b6000819050919050565b620000eb81620000d6565b8114620000f757600080fd5b50565b6000815190506200010b81620000e0565b92915050565b600073ffffffffffffffffffffffffffffffffffffffff82169050919050565b60006200013e8262000111565b9050919050565b620001508162000131565b81146200015c57600080fd5b50565b600081519050620001708162000145565b92915050565b600080600060608486031215620001925762000191620000d1565b5b6000620001a286828701620000fa565b9350506020620001b5868287016200015f565b9250506040620001c886828701620000fa565b9150509250925092565b611ad280620001e26000396000f3fe608060405234801561001057600080fd5b50600436106101205760003560e01c80638da5cb5b116100ad578063d9cf596211610071578063d9cf596214610319578063e056251814610335578063e6a690e414610353578063efdd7c0714610383578063f76db0f3146103b357610120565b80638da5cb5b146102855780639478ab8c146102a3578063965d31c3146102c15780639d76ea58146102f1578063c393d0e31461030f57610120565b80633bcfc4b8116100f45780633bcfc4b8146101c75780635136ab8b146101e55780636619aa86146102155780637547c7a3146102335780637ad78ee41461024f57610120565b806254c14d146101255780631131c8cd146101435780632406b5c014610161578063291f444214610191575b600080fd5b61012d6103e3565b60405161013a91906113ba565b60405180910390f35b61014b610666565b60405161015891906113eb565b60405180910390f35b61017b60048036038101906101769190611437565b61066c565b60405161018891906113eb565b60405180910390f35b6101ab60048036038101906101a69190611437565b6106a4565b6040516101be9796959493929190611482565b60405180910390f35b6101cf610723565b6040516101dc91906113eb565b60405180910390f35b6101ff60048036038101906101fa9190611437565b610729565b60405161020c91906113eb565b60405180910390f35b61021d610833565b60405161022a91906113eb565b60405180910390f35b61024d60048036038101906102489190611437565b610839565b005b6102696004803603810190610264919061151d565b610ba4565b60405161027c9796959493929190611482565b60405180910390f35b61028d610c13565b60405161029a919061154a565b60405180910390f35b6102ab610c37565b6040516102b891906113eb565b60405180910390f35b6102db60048036038101906102d69190611437565b610c3d565b6040516102e891906113eb565b60405180910390f35b6102f9610cbc565b604051610306919061154a565b60405180910390f35b610317610ce2565b005b610333600480360381019061032e9190611565565b611005565b005b61033d611111565b60405161034a91906113eb565b60405180910390f35b61036d60048036038101906103689190611437565b61115b565b60405161037a919061154a565b60405180910390f35b61039d60048036038101906103989190611565565b611198565b6040516103aa91906113eb565b60405180910390f35b6103cd60048036038101906103c89190611437565b6111d5565b6040516103da919061154a565b60405180910390f35b60606000600190505b600354811161056557600760006008600084815260200190815260200160002060009054906101000a900473ffffffffffffffffffffffffffffffffffffffff1673ffffffffffffffffffffffffffffffffffffffff1673ffffffffffffffffffffffffffffffffffffffff1681526020019081526020016000206009828154811061047b5761047a6115a5565b5b90600052602060002090600702016000820160009054906101000a900473ffffffffffffffffffffffffffffffffffffffff168160000160006101000a81548173ffffffffffffffffffffffffffffffffffffffff021916908373ffffffffffffffffffffffffffffffffffffffff16021790555060018201548160010155600282015481600201556003820154816003015560048201548160040155600582015481600501556006820160009054906101000a900460ff168160060160006101000a81548160ff021916908315150217905550905050808061055d90611603565b9150506103ec565b506009805480602002602001604051908101604052809291908181526020016000905b8282101561065d57838290600052602060002090600702016040518060e00160405290816000820160009054906101000a900473ffffffffffffffffffffffffffffffffffffffff1673ffffffffffffffffffffffffffffffffffffffff1673ffffffffffffffffffffffffffffffffffffffff16815260200160018201548152602001600282015481526020016003820154815260200160048201548152602001600582015481526020016006820160009054906101000a900460ff16151515158152505081526020019060010190610588565b50505050905090565b60035481565b60006018603c80844261067f919061164c565b61068991906116af565b61069391906116af565b61069d91906116af565b9050919050565b600981815481106106b457600080fd5b90600052602060002090600702016000915090508060000160009054906101000a900473ffffffffffffffffffffffffffffffffffffffff16908060010154908060020154908060030154908060040154908060050154908060060160009054906101000a900460ff16905087565b60055481565b6000806107aa600760006008600087815260200190815260200160002060009054906101000a900473ffffffffffffffffffffffffffffffffffffffff1673ffffffffffffffffffffffffffffffffffffffff1673ffffffffffffffffffffffffffffffffffffffff1681526020019081526020016000206001015461066c565b905061082b600760006008600087815260200190815260200160002060009054906101000a900473ffffffffffffffffffffffffffffffffffffffff1673ffffffffffffffffffffffffffffffffffffffff1673ffffffffffffffffffffffffffffffffffffffff1681526020019081526020016000206005015482611198565b915050919050565b60025481565b60001515600760003373ffffffffffffffffffffffffffffffffffffffff1673ffffffffffffffffffffffffffffffffffffffff16815260200190815260200160002060060160009054906101000a900460ff161515146108cf576040517f08c379a00000000000000000000000000000000000000000000000000000000081526004016108c69061173d565b60405180910390fd5b600460009054906101000a900473ffffffffffffffffffffffffffffffffffffffff1673ffffffffffffffffffffffffffffffffffffffff166323b872dd3330846040518463ffffffff1660e01b815260040161092e9392919061175d565b602060405180830381600087803b15801561094857600080fd5b505af115801561095c573d6000803e3d6000fd5b505050506040513d601f19601f8201168201806040525081019061098091906117c0565b506040518060e001604052803373ffffffffffffffffffffffffffffffffffffffff1681526020014281526020016003548152602001828152602001826002546109ca91906117ed565b8152602001600154836002546109e091906117ed565b6109ea91906116af565b815260200160011515815250600760003373ffffffffffffffffffffffffffffffffffffffff1673ffffffffffffffffffffffffffffffffffffffff16815260200190815260200160002060008201518160000160006101000a81548173ffffffffffffffffffffffffffffffffffffffff021916908373ffffffffffffffffffffffffffffffffffffffff1602179055506020820151816001015560408201518160020155606082015181600301556080820151816004015560a0820151816005015560c08201518160060160006101000a81548160ff021916908315150217905550905050600354600760003373ffffffffffffffffffffffffffffffffffffffff1673ffffffffffffffffffffffffffffffffffffffff168152602001908152602001600020600201819055503360086000600354815260200190815260200160002060006101000a81548173ffffffffffffffffffffffffffffffffffffffff021916908373ffffffffffffffffffffffffffffffffffffffff160217905550600160036000828254610b819190611847565b925050819055508060066000828254610b9a9190611847565b9250508190555050565b60076020528060005260406000206000915090508060000160009054906101000a900473ffffffffffffffffffffffffffffffffffffffff16908060010154908060020154908060030154908060040154908060050154908060060160009054906101000a900460ff16905087565b60008054906101000a900473ffffffffffffffffffffffffffffffffffffffff1681565b60015481565b6000600760006008600085815260200190815260200160002060009054906101000a900473ffffffffffffffffffffffffffffffffffffffff1673ffffffffffffffffffffffffffffffffffffffff1673ffffffffffffffffffffffffffffffffffffffff168152602001908152602001600020600301549050919050565b600460009054906101000a900473ffffffffffffffffffffffffffffffffffffffff1681565b6000610d2f600760003373ffffffffffffffffffffffffffffffffffffffff1673ffffffffffffffffffffffffffffffffffffffff1681526020019081526020016000206001015461066c565b9050600760003373ffffffffffffffffffffffffffffffffffffffff1673ffffffffffffffffffffffffffffffffffffffff16815260200190815260200160002060060160009054906101000a900460ff16610dc0576040517f08c379a0000000000000000000000000000000000000000000000000000000008152600401610db7906118e9565b60405180910390fd5b60018111610e03576040517f08c379a0000000000000000000000000000000000000000000000000000000008152600401610dfa9061197b565b60405180910390fd5b60001515600760003373ffffffffffffffffffffffffffffffffffffffff1673ffffffffffffffffffffffffffffffffffffffff16815260200190815260200160002060060160009054906101000a90505050600460009054906101000a900473ffffffffffffffffffffffffffffffffffffffff1673ffffffffffffffffffffffffffffffffffffffff1663a9059cbb33600760003373ffffffffffffffffffffffffffffffffffffffff1673ffffffffffffffffffffffffffffffffffffffff168152602001908152602001600020600301546040518363ffffffff1660e01b8152600401610ef592919061199b565b602060405180830381600087803b158015610f0f57600080fd5b505af1158015610f23573d6000803e3d6000fd5b505050506040513d601f19601f82011682018060405250810190610f4791906117c0565b506000610f96600760003373ffffffffffffffffffffffffffffffffffffffff1673ffffffffffffffffffffffffffffffffffffffff1681526020019081526020016000206005015483611198565b90503373ffffffffffffffffffffffffffffffffffffffff1681604051610fbc906119f5565b60006040518083038185875af1925050503d8060008114610ff9576040519150601f19603f3d011682016040523d82523d6000602084013e610ffe565b606091505b5050505050565b3373ffffffffffffffffffffffffffffffffffffffff1660008054906101000a900473ffffffffffffffffffffffffffffffffffffffff1673ffffffffffffffffffffffffffffffffffffffff1614611093576040517f08c379a000000000000000000000000000000000000000000000000000000000815260040161108a90611a7c565b60405180910390fd5b80600760006008600086815260200190815260200160002060009054906101000a900473ffffffffffffffffffffffffffffffffffffffff1673ffffffffffffffffffffffffffffffffffffffff1673ffffffffffffffffffffffffffffffffffffffff168152602001908152602001600020600101819055505050565b6000600760003373ffffffffffffffffffffffffffffffffffffffff1673ffffffffffffffffffffffffffffffffffffffff16815260200190815260200160002060020154905090565b60006008600083815260200190815260200160002060009054906101000a900473ffffffffffffffffffffffffffffffffffffffff169050919050565b600061016d61271083856005546111af91906117ed565b6111b991906117ed565b6111c391906116af565b6111cd91906116af565b905092915050565b60086020528060005260406000206000915054906101000a900473ffffffffffffffffffffffffffffffffffffffff1681565b600081519050919050565b600082825260208201905092915050565b6000819050602082019050919050565b600073ffffffffffffffffffffffffffffffffffffffff82169050919050565b600061125f82611234565b9050919050565b61126f81611254565b82525050565b6000819050919050565b61128881611275565b82525050565b60008115159050919050565b6112a38161128e565b82525050565b60e0820160008201516112bf6000850182611266565b5060208201516112d2602085018261127f565b5060408201516112e5604085018261127f565b5060608201516112f8606085018261127f565b50608082015161130b608085018261127f565b5060a082015161131e60a085018261127f565b5060c082015161133160c085018261129a565b50505050565b600061134383836112a9565b60e08301905092915050565b6000602082019050919050565b600061136782611208565b6113718185611213565b935061137c83611224565b8060005b838110156113ad5781516113948882611337565b975061139f8361134f565b925050600181019050611380565b5085935050505092915050565b600060208201905081810360008301526113d4818461135c565b905092915050565b6113e581611275565b82525050565b600060208201905061140060008301846113dc565b92915050565b600080fd5b61141481611275565b811461141f57600080fd5b50565b6000813590506114318161140b565b92915050565b60006020828403121561144d5761144c611406565b5b600061145b84828501611422565b91505092915050565b61146d81611254565b82525050565b61147c8161128e565b82525050565b600060e082019050611497600083018a611464565b6114a460208301896113dc565b6114b160408301886113dc565b6114be60608301876113dc565b6114cb60808301866113dc565b6114d860a08301856113dc565b6114e560c0830184611473565b98975050505050505050565b6114fa81611254565b811461150557600080fd5b50565b600081359050611517816114f1565b92915050565b60006020828403121561153357611532611406565b5b600061154184828501611508565b91505092915050565b600060208201905061155f6000830184611464565b92915050565b6000806040838503121561157c5761157b611406565b5b600061158a85828601611422565b925050602061159b85828601611422565b9150509250929050565b7f4e487b7100000000000000000000000000000000000000000000000000000000600052603260045260246000fd5b7f4e487b7100000000000000000000000000000000000000000000000000000000600052601160045260246000fd5b600061160e82611275565b91507fffffffffffffffffffffffffffffffffffffffffffffffffffffffffffffffff821415611641576116406115d4565b5b600182019050919050565b600061165782611275565b915061166283611275565b925082821015611675576116746115d4565b5b828203905092915050565b7f4e487b7100000000000000000000000000000000000000000000000000000000600052601260045260246000fd5b60006116ba82611275565b91506116c583611275565b9250826116d5576116d4611680565b5b828204905092915050565b600082825260208201905092915050565b7f436c6f736520796f7572207374616b656420706f736974696f6e206669727374600082015250565b60006117276020836116e0565b9150611732826116f1565b602082019050919050565b600060208201905081810360008301526117568161171a565b9050919050565b60006060820190506117726000830186611464565b61177f6020830185611464565b61178c60408301846113dc565b949350505050565b61179d8161128e565b81146117a857600080fd5b50565b6000815190506117ba81611794565b92915050565b6000602082840312156117d6576117d5611406565b5b60006117e4848285016117ab565b91505092915050565b60006117f882611275565b915061180383611275565b9250817fffffffffffffffffffffffffffffffffffffffffffffffffffffffffffffffff048311821515161561183c5761183b6115d4565b5b828202905092915050565b600061185282611275565b915061185d83611275565b9250827fffffffffffffffffffffffffffffffffffffffffffffffffffffffffffffffff03821115611892576118916115d4565b5b828201905092915050565b7f596f7520646f6e2774206861766520616e206f70656e20706f736974696f6e2e600082015250565b60006118d36020836116e0565b91506118de8261189d565b602082019050919050565b60006020820190508181036000830152611902816118c6565b9050919050565b7f5761697420666f722061746c65617374203120646179206265666f726520636c60008201527f6f73696e6720796f757220706f736974696f6e2e000000000000000000000000602082015250565b60006119656034836116e0565b915061197082611909565b604082019050919050565b6000602082019050818103600083015261199481611958565b9050919050565b60006040820190506119b06000830185611464565b6119bd60208301846113dc565b9392505050565b600081905092915050565b50565b60006119df6000836119c4565b91506119ea826119cf565b600082019050919050565b6000611a00826119d2565b9150819050919050565b7f4f6e6c79206f776e6572206d61792063616c6c20746869732066756e6374696f60008201527f6e00000000000000000000000000000000000000000000000000000000000000602082015250565b6000611a666021836116e0565b9150611a7182611a0a565b604082019050919050565b60006020820190508181036000830152611a9581611a59565b905091905056fea26469706673582212201369cdd82f43dbcb8cbedc5144169237fbfff5887fc97cc7d1d9f32c3300ab7e64736f6c63430008090033",
  "linkReferences": {},
  "deployedLinkReferences": {}
}